{
  "address": "0xB29712dC57382314591f9abD475C0DF4b608C886",
  "abi": [
    {
      "inputs": [
        {
          "internalType": "string",
          "name": "_savingsName",
          "type": "string"
        },
        {
          "internalType": "address",
          "name": "_stableTokenAddress",
          "type": "address"
        }
      ],
      "stateMutability": "nonpayable",
      "type": "constructor"
    },
    {
      "inputs": [],
      "name": "Savings__DepositFailed",
      "type": "error"
    },
    {
      "inputs": [],
      "name": "Savings__UnlockTimeNotReached",
      "type": "error"
    },
    {
      "anonymous": false,
      "inputs": [
        {
          "indexed": true,
          "internalType": "address",
          "name": "saver",
          "type": "address"
        },
        {
          "indexed": false,
          "internalType": "uint256",
          "name": "amount",
          "type": "uint256"
        }
      ],
      "name": "FundsDesposited",
      "type": "event"
    },
    {
      "anonymous": false,
      "inputs": [
        {
          "indexed": true,
          "internalType": "address",
          "name": "saver",
          "type": "address"
        },
        {
          "indexed": false,
          "internalType": "uint256",
          "name": "amount",
          "type": "uint256"
        }
      ],
      "name": "FundsWithdrawn",
      "type": "event"
    },
    {
      "anonymous": false,
      "inputs": [
        {
          "indexed": true,
          "internalType": "address",
          "name": "previousOwner",
          "type": "address"
        },
        {
          "indexed": true,
          "internalType": "address",
          "name": "newOwner",
          "type": "address"
        }
      ],
      "name": "OwnershipTransferred",
      "type": "event"
    },
    {
      "inputs": [],
      "name": "DEPLOY_FEE",
      "outputs": [
        {
          "internalType": "uint256",
          "name": "",
          "type": "uint256"
        }
      ],
      "stateMutability": "view",
      "type": "function"
    },
    {
      "inputs": [
        {
          "internalType": "string",
          "name": "_savingsPlanName",
          "type": "string"
        },
        {
          "internalType": "uint256",
          "name": "_amount",
          "type": "uint256"
        },
        {
          "internalType": "uint256",
          "name": "_target",
          "type": "uint256"
        },
        {
          "internalType": "uint256",
          "name": "_unlockTime",
          "type": "uint256"
        }
      ],
      "name": "createSavingPlan",
      "outputs": [],
      "stateMutability": "nonpayable",
      "type": "function"
    },
    {
      "inputs": [
        {
          "internalType": "uint256",
          "name": "id",
          "type": "uint256"
        },
        {
          "internalType": "uint256",
          "name": "_amount",
          "type": "uint256"
        }
      ],
      "name": "deposit",
      "outputs": [],
      "stateMutability": "nonpayable",
      "type": "function"
    },
    {
      "inputs": [],
      "name": "getContractBalance",
      "outputs": [
        {
          "internalType": "uint256",
          "name": "",
          "type": "uint256"
        }
      ],
      "stateMutability": "view",
      "type": "function"
    },
    {
      "inputs": [
        {
          "internalType": "uint256",
          "name": "id",
          "type": "uint256"
        }
      ],
      "name": "getSavingPlan",
      "outputs": [
        {
          "components": [
            {
              "internalType": "string",
              "name": "savingPlanName",
              "type": "string"
            },
            {
              "internalType": "uint256",
              "name": "total",
              "type": "uint256"
            },
            {
              "internalType": "uint256",
              "name": "target",
              "type": "uint256"
            },
            {
              "internalType": "uint256",
              "name": "unlockTime",
              "type": "uint256"
            }
          ],
          "internalType": "struct Savings.SavingPlan",
          "name": "",
          "type": "tuple"
        }
      ],
      "stateMutability": "view",
      "type": "function"
    },
    {
      "inputs": [],
      "name": "getSavingPlanCount",
      "outputs": [
        {
          "internalType": "uint256",
          "name": "",
          "type": "uint256"
        }
      ],
      "stateMutability": "view",
      "type": "function"
    },
    {
      "inputs": [
        {
          "internalType": "uint256",
          "name": "id",
          "type": "uint256"
        }
      ],
      "name": "getSavingPlanName",
      "outputs": [
        {
          "internalType": "string",
          "name": "",
          "type": "string"
        }
      ],
      "stateMutability": "view",
      "type": "function"
    },
    {
      "inputs": [],
      "name": "owner",
      "outputs": [
        {
          "internalType": "address",
          "name": "",
          "type": "address"
        }
      ],
      "stateMutability": "view",
      "type": "function"
    },
    {
      "inputs": [],
      "name": "renounceOwnership",
      "outputs": [],
      "stateMutability": "nonpayable",
      "type": "function"
    },
    {
      "inputs": [
        {
          "internalType": "address",
          "name": "newOwner",
          "type": "address"
        }
      ],
      "name": "transferOwnership",
      "outputs": [],
      "stateMutability": "nonpayable",
      "type": "function"
    },
    {
      "inputs": [
        {
          "internalType": "uint256",
          "name": "id",
          "type": "uint256"
        }
      ],
      "name": "withdraw",
      "outputs": [],
      "stateMutability": "nonpayable",
      "type": "function"
    }
  ],
  "transactionHash": "0x9f78134deae20032d638dc262a08ffab3ec8052e2f55463e4962eb56ee13ef5a",
  "args": [
    "general",
    "0x6B175474E89094C44Da98b954EedeAC495271d0F"
  ],
  "numDeployments": 2,
  "solcInputHash": "b52b32207cea5375414753e9298e526a",
  "bytecode": "0x60a06040523480156200001157600080fd5b50604051620024a7380380620024a7833981810160405281019062000037919062000472565b620000576200004b620001ae60201b60201c565b620001b660201b60201c565b816002908162000068919062000723565b50600060405180608001604052806040518060400160405280600f81526020017f47656e6572616c20736176696e6773000000000000000000000000000000000081525081526020016000815260200160008152602001428152509050806003600060045481526020019081526020016000206000820151816000019081620000f2919062000723565b5060208201518160010155604082015181600201556060820151816003015590505060016004600082825462000129919062000839565b925050819055503373ffffffffffffffffffffffffffffffffffffffff1660808173ffffffffffffffffffffffffffffffffffffffff168152505081600160006101000a81548173ffffffffffffffffffffffffffffffffffffffff021916908373ffffffffffffffffffffffffffffffffffffffff16021790555050505062000874565b600033905090565b60008060009054906101000a900473ffffffffffffffffffffffffffffffffffffffff169050816000806101000a81548173ffffffffffffffffffffffffffffffffffffffff021916908373ffffffffffffffffffffffffffffffffffffffff1602179055508173ffffffffffffffffffffffffffffffffffffffff168173ffffffffffffffffffffffffffffffffffffffff167f8be0079c531659141344cd1fd0a4f28419497f9722a3daafe3b4186f6b6457e060405160405180910390a35050565b6000604051905090565b600080fd5b600080fd5b600080fd5b600080fd5b6000601f19601f8301169050919050565b7f4e487b7100000000000000000000000000000000000000000000000000000000600052604160045260246000fd5b620002e38262000298565b810181811067ffffffffffffffff82111715620003055762000304620002a9565b5b80604052505050565b60006200031a6200027a565b9050620003288282620002d8565b919050565b600067ffffffffffffffff8211156200034b576200034a620002a9565b5b620003568262000298565b9050602081019050919050565b60005b838110156200038357808201518184015260208101905062000366565b60008484015250505050565b6000620003a6620003a0846200032d565b6200030e565b905082815260208101848484011115620003c557620003c462000293565b5b620003d284828562000363565b509392505050565b600082601f830112620003f257620003f16200028e565b5b8151620004048482602086016200038f565b91505092915050565b600073ffffffffffffffffffffffffffffffffffffffff82169050919050565b60006200043a826200040d565b9050919050565b6200044c816200042d565b81146200045857600080fd5b50565b6000815190506200046c8162000441565b92915050565b600080604083850312156200048c576200048b62000284565b5b600083015167ffffffffffffffff811115620004ad57620004ac62000289565b5b620004bb85828601620003da565b9250506020620004ce858286016200045b565b9150509250929050565b600081519050919050565b7f4e487b7100000000000000000000000000000000000000000000000000000000600052602260045260246000fd5b600060028204905060018216806200052b57607f821691505b602082108103620005415762000540620004e3565b5b50919050565b60008190508160005260206000209050919050565b60006020601f8301049050919050565b600082821b905092915050565b600060088302620005ab7fffffffffffffffffffffffffffffffffffffffffffffffffffffffffffffffff826200056c565b620005b786836200056c565b95508019841693508086168417925050509392505050565b6000819050919050565b6000819050919050565b600062000604620005fe620005f884620005cf565b620005d9565b620005cf565b9050919050565b6000819050919050565b6200062083620005e3565b620006386200062f826200060b565b84845462000579565b825550505050565b600090565b6200064f62000640565b6200065c81848462000615565b505050565b5b8181101562000684576200067860008262000645565b60018101905062000662565b5050565b601f821115620006d3576200069d8162000547565b620006a8846200055c565b81016020851015620006b8578190505b620006d0620006c7856200055c565b83018262000661565b50505b505050565b600082821c905092915050565b6000620006f860001984600802620006d8565b1980831691505092915050565b6000620007138383620006e5565b9150826002028217905092915050565b6200072e82620004d8565b67ffffffffffffffff8111156200074a5762000749620002a9565b5b62000756825462000512565b6200076382828562000688565b600060209050601f8311600181146200079b576000841562000786578287015190505b62000792858262000705565b86555062000802565b601f198416620007ab8662000547565b60005b82811015620007d557848901518255600182019150602085019450602081019050620007ae565b86831015620007f55784890151620007f1601f891682620006e5565b8355505b6001600288020188555050505b505050505050565b7f4e487b7100000000000000000000000000000000000000000000000000000000600052601160045260246000fd5b60006200084682620005cf565b91506200085383620005cf565b92508282019050808211156200086e576200086d6200080a565b5b92915050565b608051611bf4620008b3600039600081816103210152818161039a015281816106df0152818161076b015281816108b2015261096f0152611bf46000f3fe608060405234801561001057600080fd5b50600436106100a95760003560e01c8063911f8ad511610071578063911f8ad51461012e578063977b4da71461015e578063a1a4e2211461018e578063b946c8bc146101ac578063e2bbb158146101c8578063f2fde38b146101e4576100a9565b80632e1a7d4d146100ae5780634f23daf3146100ca5780636f9fb98a146100e8578063715018a6146101065780638da5cb5b14610110575b600080fd5b6100c860048036038101906100c39190610ff6565b610200565b005b6100d261040f565b6040516100df9190611032565b60405180910390f35b6100f061041b565b6040516100fd9190611032565b60405180910390f35b61010e6104c3565b005b6101186104d7565b604051610125919061108e565b60405180910390f35b61014860048036038101906101439190610ff6565b610500565b6040516101559190611139565b60405180910390f35b61017860048036038101906101739190610ff6565b6105e1565b6040516101859190611217565b60405180910390f35b6101966106be565b6040516101a39190611032565b60405180910390f35b6101c660048036038101906101c1919061136e565b6106c8565b005b6101e260048036038101906101dd91906113f1565b610868565b005b6101fe60048036038101906101f9919061145d565b610a13565b005b610208610a96565b600060036000838152602001908152602001600020604051806080016040529081600082018054610238906114b9565b80601f0160208091040260200160405190810160405280929190818152602001828054610264906114b9565b80156102b15780601f10610286576101008083540402835291602001916102b1565b820191906000526020600020905b81548152906001019060200180831161029457829003601f168201915b505050505081526020016001820154815260200160028201548152602001600382015481525050905060008160600151421190508061031c576040517f98d00f4900000000000000000000000000000000000000000000000000000000815260040160405180910390fd5b61038d7f00000000000000000000000000000000000000000000000000000000000000008360200151600160009054906101000a900473ffffffffffffffffffffffffffffffffffffffff1673ffffffffffffffffffffffffffffffffffffffff16610b149092919063ffffffff16565b60008260200181815250507f000000000000000000000000000000000000000000000000000000000000000073ffffffffffffffffffffffffffffffffffffffff167feaff4b37086828766ad3268786972c0cd24259d4c87a80f9d3963a3c3d999b0d83602001516040516104029190611032565b60405180910390a2505050565b670de0b6b3a764000081565b600080600160009054906101000a900473ffffffffffffffffffffffffffffffffffffffff1673ffffffffffffffffffffffffffffffffffffffff166370a08231306040518263ffffffff1660e01b8152600401610479919061108e565b602060405180830381865afa158015610496573d6000803e3d6000fd5b505050506040513d601f19601f820116820180604052508101906104ba91906114ff565b90508091505090565b6104cb610a96565b6104d56000610b9a565b565b60008060009054906101000a900473ffffffffffffffffffffffffffffffffffffffff16905090565b6060600060036000848152602001908152602001600020604051806080016040529081600082018054610532906114b9565b80601f016020809104026020016040519081016040528092919081815260200182805461055e906114b9565b80156105ab5780601f10610580576101008083540402835291602001916105ab565b820191906000526020600020905b81548152906001019060200180831161058e57829003601f168201915b50505050508152602001600182015481526020016002820154815260200160038201548152505090508060000151915050919050565b6105e9610f84565b60036000838152602001908152602001600020604051806080016040529081600082018054610617906114b9565b80601f0160208091040260200160405190810160405280929190818152602001828054610643906114b9565b80156106905780601f1061066557610100808354040283529160200191610690565b820191906000526020600020905b81548152906001019060200180831161067357829003601f168201915b5050505050815260200160018201548152602001600282015481526020016003820154815250509050919050565b6000600454905090565b6106d0610a96565b600160045411610766576107657f0000000000000000000000000000000000000000000000000000000000000000736fb462259dee0956ffae3a87c8481885c2db34bb670de0b6b3a7640000600160009054906101000a900473ffffffffffffffffffffffffffffffffffffffff1673ffffffffffffffffffffffffffffffffffffffff16610c5e909392919063ffffffff16565b5b6107d57f00000000000000000000000000000000000000000000000000000000000000003085600160009054906101000a900473ffffffffffffffffffffffffffffffffffffffff1673ffffffffffffffffffffffffffffffffffffffff16610c5e909392919063ffffffff16565b6000604051806080016040528086815260200185815260200184815260200183815250905080600360006004548152602001908152602001600020600082015181600001908161082591906116d8565b5060208201518160010155604082015181600201556060820151816003015590505060016004600082825461085a91906117d9565b925050819055505050505050565b610870610a96565b6000600160009054906101000a900473ffffffffffffffffffffffffffffffffffffffff1673ffffffffffffffffffffffffffffffffffffffff166323b872dd7f000000000000000000000000000000000000000000000000000000000000000030856040518463ffffffff1660e01b81526004016108f19392919061180d565b6020604051808303816000875af1158015610910573d6000803e3d6000fd5b505050506040513d601f19601f82011682018060405250810190610934919061187c565b90508061096d576040517fc5d0e60a00000000000000000000000000000000000000000000000000000000815260040160405180910390fd5b7f000000000000000000000000000000000000000000000000000000000000000073ffffffffffffffffffffffffffffffffffffffff167f62f1c62f0d17321b6d4743a85f358bc73504b4a02b759a5735f508b22421f5b9836040516109d39190611032565b60405180910390a2600060036000858152602001908152602001600020905082816001016000828254610a0691906117d9565b9250508190555050505050565b610a1b610a96565b600073ffffffffffffffffffffffffffffffffffffffff168173ffffffffffffffffffffffffffffffffffffffff1603610a8a576040517f08c379a0000000000000000000000000000000000000000000000000000000008152600401610a819061191b565b60405180910390fd5b610a9381610b9a565b50565b610a9e610ce7565b73ffffffffffffffffffffffffffffffffffffffff16610abc6104d7565b73ffffffffffffffffffffffffffffffffffffffff1614610b12576040517f08c379a0000000000000000000000000000000000000000000000000000000008152600401610b0990611987565b60405180910390fd5b565b610b958363a9059cbb60e01b8484604051602401610b339291906119a7565b604051602081830303815290604052907bffffffffffffffffffffffffffffffffffffffffffffffffffffffff19166020820180517bffffffffffffffffffffffffffffffffffffffffffffffffffffffff8381831617835250505050610cef565b505050565b60008060009054906101000a900473ffffffffffffffffffffffffffffffffffffffff169050816000806101000a81548173ffffffffffffffffffffffffffffffffffffffff021916908373ffffffffffffffffffffffffffffffffffffffff1602179055508173ffffffffffffffffffffffffffffffffffffffff168173ffffffffffffffffffffffffffffffffffffffff167f8be0079c531659141344cd1fd0a4f28419497f9722a3daafe3b4186f6b6457e060405160405180910390a35050565b610ce1846323b872dd60e01b858585604051602401610c7f9392919061180d565b604051602081830303815290604052907bffffffffffffffffffffffffffffffffffffffffffffffffffffffff19166020820180517bffffffffffffffffffffffffffffffffffffffffffffffffffffffff8381831617835250505050610cef565b50505050565b600033905090565b6000610d51826040518060400160405280602081526020017f5361666545524332303a206c6f772d6c6576656c2063616c6c206661696c65648152508573ffffffffffffffffffffffffffffffffffffffff16610db79092919063ffffffff16565b9050600081511480610d73575080806020019051810190610d72919061187c565b5b610db2576040517f08c379a0000000000000000000000000000000000000000000000000000000008152600401610da990611a42565b60405180910390fd5b505050565b6060610dc68484600085610dcf565b90509392505050565b606082471015610e14576040517f08c379a0000000000000000000000000000000000000000000000000000000008152600401610e0b90611ad4565b60405180910390fd5b6000808673ffffffffffffffffffffffffffffffffffffffff168587604051610e3d9190611b3b565b60006040518083038185875af1925050503d8060008114610e7a576040519150601f19603f3d011682016040523d82523d6000602084013e610e7f565b606091505b5091509150610e9087838387610e9c565b92505050949350505050565b60608315610efe576000835103610ef657610eb685610f11565b610ef5576040517f08c379a0000000000000000000000000000000000000000000000000000000008152600401610eec90611b9e565b60405180910390fd5b5b829050610f09565b610f088383610f34565b5b949350505050565b6000808273ffffffffffffffffffffffffffffffffffffffff163b119050919050565b600082511115610f475781518083602001fd5b806040517f08c379a0000000000000000000000000000000000000000000000000000000008152600401610f7b9190611139565b60405180910390fd5b6040518060800160405280606081526020016000815260200160008152602001600081525090565b6000604051905090565b600080fd5b600080fd5b6000819050919050565b610fd381610fc0565b8114610fde57600080fd5b50565b600081359050610ff081610fca565b92915050565b60006020828403121561100c5761100b610fb6565b5b600061101a84828501610fe1565b91505092915050565b61102c81610fc0565b82525050565b60006020820190506110476000830184611023565b92915050565b600073ffffffffffffffffffffffffffffffffffffffff82169050919050565b60006110788261104d565b9050919050565b6110888161106d565b82525050565b60006020820190506110a3600083018461107f565b92915050565b600081519050919050565b600082825260208201905092915050565b60005b838110156110e35780820151818401526020810190506110c8565b60008484015250505050565b6000601f19601f8301169050919050565b600061110b826110a9565b61111581856110b4565b93506111258185602086016110c5565b61112e816110ef565b840191505092915050565b600060208201905081810360008301526111538184611100565b905092915050565b600082825260208201905092915050565b6000611177826110a9565b611181818561115b565b93506111918185602086016110c5565b61119a816110ef565b840191505092915050565b6111ae81610fc0565b82525050565b600060808301600083015184820360008601526111d1828261116c565b91505060208301516111e660208601826111a5565b5060408301516111f960408601826111a5565b50606083015161120c60608601826111a5565b508091505092915050565b6000602082019050818103600083015261123181846111b4565b905092915050565b600080fd5b600080fd5b7f4e487b7100000000000000000000000000000000000000000000000000000000600052604160045260246000fd5b61127b826110ef565b810181811067ffffffffffffffff8211171561129a57611299611243565b5b80604052505050565b60006112ad610fac565b90506112b98282611272565b919050565b600067ffffffffffffffff8211156112d9576112d8611243565b5b6112e2826110ef565b9050602081019050919050565b82818337600083830152505050565b600061131161130c846112be565b6112a3565b90508281526020810184848401111561132d5761132c61123e565b5b6113388482856112ef565b509392505050565b600082601f83011261135557611354611239565b5b81356113658482602086016112fe565b91505092915050565b6000806000806080858703121561138857611387610fb6565b5b600085013567ffffffffffffffff8111156113a6576113a5610fbb565b5b6113b287828801611340565b94505060206113c387828801610fe1565b93505060406113d487828801610fe1565b92505060606113e587828801610fe1565b91505092959194509250565b6000806040838503121561140857611407610fb6565b5b600061141685828601610fe1565b925050602061142785828601610fe1565b9150509250929050565b61143a8161106d565b811461144557600080fd5b50565b60008135905061145781611431565b92915050565b60006020828403121561147357611472610fb6565b5b600061148184828501611448565b91505092915050565b7f4e487b7100000000000000000000000000000000000000000000000000000000600052602260045260246000fd5b600060028204905060018216806114d157607f821691505b6020821081036114e4576114e361148a565b5b50919050565b6000815190506114f981610fca565b92915050565b60006020828403121561151557611514610fb6565b5b6000611523848285016114ea565b91505092915050565b60008190508160005260206000209050919050565b60006020601f8301049050919050565b600082821b905092915050565b60006008830261158e7fffffffffffffffffffffffffffffffffffffffffffffffffffffffffffffffff82611551565b6115988683611551565b95508019841693508086168417925050509392505050565b6000819050919050565b60006115d56115d06115cb84610fc0565b6115b0565b610fc0565b9050919050565b6000819050919050565b6115ef836115ba565b6116036115fb826115dc565b84845461155e565b825550505050565b600090565b61161861160b565b6116238184846115e6565b505050565b5b818110156116475761163c600082611610565b600181019050611629565b5050565b601f82111561168c5761165d8161152c565b61166684611541565b81016020851015611675578190505b61168961168185611541565b830182611628565b50505b505050565b600082821c905092915050565b60006116af60001984600802611691565b1980831691505092915050565b60006116c8838361169e565b9150826002028217905092915050565b6116e1826110a9565b67ffffffffffffffff8111156116fa576116f9611243565b5b61170482546114b9565b61170f82828561164b565b600060209050601f8311600181146117425760008415611730578287015190505b61173a85826116bc565b8655506117a2565b601f1984166117508661152c565b60005b8281101561177857848901518255600182019150602085019450602081019050611753565b868310156117955784890151611791601f89168261169e565b8355505b6001600288020188555050505b505050505050565b7f4e487b7100000000000000000000000000000000000000000000000000000000600052601160045260246000fd5b60006117e482610fc0565b91506117ef83610fc0565b9250828201905080821115611807576118066117aa565b5b92915050565b6000606082019050611822600083018661107f565b61182f602083018561107f565b61183c6040830184611023565b949350505050565b60008115159050919050565b61185981611844565b811461186457600080fd5b50565b60008151905061187681611850565b92915050565b60006020828403121561189257611891610fb6565b5b60006118a084828501611867565b91505092915050565b7f4f776e61626c653a206e6577206f776e657220697320746865207a65726f206160008201527f6464726573730000000000000000000000000000000000000000000000000000602082015250565b60006119056026836110b4565b9150611910826118a9565b604082019050919050565b60006020820190508181036000830152611934816118f8565b9050919050565b7f4f776e61626c653a2063616c6c6572206973206e6f7420746865206f776e6572600082015250565b60006119716020836110b4565b915061197c8261193b565b602082019050919050565b600060208201905081810360008301526119a081611964565b9050919050565b60006040820190506119bc600083018561107f565b6119c96020830184611023565b9392505050565b7f5361666545524332303a204552433230206f7065726174696f6e20646964206e60008201527f6f74207375636365656400000000000000000000000000000000000000000000602082015250565b6000611a2c602a836110b4565b9150611a37826119d0565b604082019050919050565b60006020820190508181036000830152611a5b81611a1f565b9050919050565b7f416464726573733a20696e73756666696369656e742062616c616e636520666f60008201527f722063616c6c0000000000000000000000000000000000000000000000000000602082015250565b6000611abe6026836110b4565b9150611ac982611a62565b604082019050919050565b60006020820190508181036000830152611aed81611ab1565b9050919050565b600081519050919050565b600081905092915050565b6000611b1582611af4565b611b1f8185611aff565b9350611b2f8185602086016110c5565b80840191505092915050565b6000611b478284611b0a565b915081905092915050565b7f416464726573733a2063616c6c20746f206e6f6e2d636f6e7472616374000000600082015250565b6000611b88601d836110b4565b9150611b9382611b52565b602082019050919050565b60006020820190508181036000830152611bb781611b7b565b905091905056fea2646970667358221220de3e150b3e1a4979ee01f8a7ae6618b9741bb8f6c432a161d584c1c18a67303364736f6c63430008130033",
  "devdoc": {
    "kind": "dev",
    "methods": {
      "owner()": {
        "details": "Returns the address of the current owner."
      },
      "renounceOwnership()": {
        "details": "Leaves the contract without owner. It will not be possible to call `onlyOwner` functions. Can only be called by the current owner. NOTE: Renouncing ownership will leave the contract without an owner, thereby disabling any functionality that is only available to the owner."
      },
      "transferOwnership(address)": {
        "details": "Transfers ownership of the contract to a new account (`newOwner`). Can only be called by the current owner."
      }
    },
    "version": 1
  },
  "userdoc": {
    "kind": "user",
    "methods": {},
    "version": 1
  },
  "storageLayout": {
    "storage": [
      {
        "astId": 53,
        "contract": "contracts/Savings.sol:Savings",
        "label": "_owner",
        "offset": 0,
        "slot": "0",
        "type": "t_address"
      },
      {
        "astId": 1031,
        "contract": "contracts/Savings.sol:Savings",
        "label": "s_stableToken",
        "offset": 0,
        "slot": "1",
        "type": "t_contract(IERC20)239"
      },
      {
        "astId": 1033,
        "contract": "contracts/Savings.sol:Savings",
        "label": "s_savingsName",
        "offset": 0,
        "slot": "2",
        "type": "t_string_storage"
      },
      {
        "astId": 1040,
        "contract": "contracts/Savings.sol:Savings",
        "label": "s_idToSavingPlan",
        "offset": 0,
        "slot": "3",
        "type": "t_mapping(t_uint256,t_struct(SavingPlan)1028_storage)"
      },
      {
        "astId": 1042,
        "contract": "contracts/Savings.sol:Savings",
        "label": "s_savingPlansCounter",
        "offset": 0,
        "slot": "4",
        "type": "t_uint256"
      }
    ],
    "types": {
      "t_address": {
        "encoding": "inplace",
        "label": "address",
        "numberOfBytes": "20"
      },
      "t_contract(IERC20)239": {
        "encoding": "inplace",
        "label": "contract IERC20",
        "numberOfBytes": "20"
      },
      "t_mapping(t_uint256,t_struct(SavingPlan)1028_storage)": {
        "encoding": "mapping",
        "key": "t_uint256",
        "label": "mapping(uint256 => struct Savings.SavingPlan)",
        "numberOfBytes": "32",
        "value": "t_struct(SavingPlan)1028_storage"
      },
      "t_string_storage": {
        "encoding": "bytes",
        "label": "string",
        "numberOfBytes": "32"
      },
      "t_struct(SavingPlan)1028_storage": {
        "encoding": "inplace",
        "label": "struct Savings.SavingPlan",
        "members": [
          {
            "astId": 1021,
            "contract": "contracts/Savings.sol:Savings",
            "label": "savingPlanName",
            "offset": 0,
            "slot": "0",
            "type": "t_string_storage"
          },
          {
            "astId": 1023,
            "contract": "contracts/Savings.sol:Savings",
            "label": "total",
            "offset": 0,
            "slot": "1",
            "type": "t_uint256"
          },
          {
            "astId": 1025,
            "contract": "contracts/Savings.sol:Savings",
            "label": "target",
            "offset": 0,
            "slot": "2",
            "type": "t_uint256"
          },
          {
            "astId": 1027,
            "contract": "contracts/Savings.sol:Savings",
            "label": "unlockTime",
            "offset": 0,
            "slot": "3",
            "type": "t_uint256"
          }
        ],
        "numberOfBytes": "128"
      },
      "t_uint256": {
        "encoding": "inplace",
        "label": "uint256",
        "numberOfBytes": "32"
      }
    }
  }
}